{"contracts/ArbitrageExecutor.sol":{"ArbitrageExecutor":{"abi":[{"inputs":[{"internalType":"address","name":"_addressProvider","type":"address"}],"stateMutability":"nonpayable","type":"constructor"},{"inputs":[{"internalType":"address","name":"owner","type":"address"}],"name":"OwnableInvalidOwner","type":"error"},{"inputs":[{"internalType":"address","name":"account","type":"address"}],"name":"OwnableUnauthorizedAccount","type":"error"},{"anonymous":false,"inputs":[{"indexed":true,"internalType":"address","name":"asset","type":"address"},{"indexed":false,"internalType":"uint256","name":"amount","type":"uint256"},{"indexed":false,"internalType":"uint256","name":"profit","type":"uint256"},{"indexed":true,"internalType":"address","name":"executor","type":"address"}],"name":"ArbitrageExecuted","type":"event"},{"anonymous":false,"inputs":[{"indexed":true,"internalType":"address","name":"executor","type":"address"},{"indexed":false,"internalType":"bool","name":"authorized","type":"bool"}],"name":"ExecutorAuthorized","type":"event"},{"anonymous":false,"inputs":[{"indexed":true,"internalType":"address","name":"previousOwner","type":"address"},{"indexed":true,"internalType":"address","name":"newOwner","type":"address"}],"name":"OwnershipTransferred","type":"event"},{"inputs":[],"name":"ADDRESSES_PROVIDER","outputs":[{"internalType":"contract IPoolAddressesProvider","name":"","type":"address"}],"stateMutability":"view","type":"function"},{"inputs":[],"name":"POOL","outputs":[{"internalType":"contract IPool","name":"","type":"address"}],"stateMutability":"view","type":"function"},{"inputs":[{"internalType":"address","name":"executor","type":"address"},{"internalType":"bool","name":"authorized","type":"bool"}],"name":"authorizeExecutor","outputs":[],"stateMutability":"nonpayable","type":"function"},{"inputs":[{"internalType":"address","name":"","type":"address"}],"name":"authorizedExecutors","outputs":[{"internalType":"bool","name":"","type":"bool"}],"stateMutability":"view","type":"function"},{"inputs":[{"internalType":"address","name":"asset","type":"address"},{"internalType":"uint256","name":"amount","type":"uint256"},{"internalType":"bytes","name":"params","type":"bytes"}],"name":"executeArbitrage","outputs":[],"stateMutability":"nonpayable","type":"function"},{"inputs":[{"internalType":"address","name":"asset","type":"address"},{"internalType":"uint256","name":"amount","type":"uint256"},{"internalType":"uint256","name":"premium","type":"uint256"},{"internalType":"address","name":"initiator","type":"address"},{"internalType":"bytes","name":"params","type":"bytes"}],"name":"executeOperation","outputs":[{"internalType":"bool","name":"","type":"bool"}],"stateMutability":"nonpayable","type":"function"},{"inputs":[],"name":"owner","outputs":[{"internalType":"address","name":"","type":"address"}],"stateMutability":"view","type":"function"},{"inputs":[],"name":"renounceOwnership","outputs":[],"stateMutability":"nonpayable","type":"function"},{"inputs":[{"internalType":"address","name":"newOwner","type":"address"}],"name":"transferOwnership","outputs":[],"stateMutability":"nonpayable","type":"function"},{"inputs":[],"name":"withdrawETH","outputs":[],"stateMutability":"nonpayable","type":"function"},{"inputs":[{"internalType":"address","name":"token","type":"address"},{"internalType":"uint256","name":"amount","type":"uint256"}],"name":"withdrawToken","outputs":[],"stateMutability":"nonpayable","type":"function"},{"stateMutability":"payable","type":"receive"}],"evm":{"bytecode":{"linkReferences":{},"object":"60c080604052346101295760046020610e5e8038038091610020828761012e565b85396001600160a01b0393849161003a9190810190610167565b16806080526040519283809263026b1d5f60e01b82525afa801561011d5782916000916100ef575b501660a05233156100d6576000543360018060a01b0319821617600055604051913391167f8be0079c531659141344cd1fd0a4f28419497f9722a3daafe3b4186f6b6457e0600080a3610cd7908161018782396080518160f6015260a0518181816101eb0152818161054201526108b20152f35b604051631e4fbdf760e01b815260006004820152602490fd5b610110915060203d8111610116575b610108818361012e565b810190610167565b38610062565b503d6100fe565b6040513d6000823e3d90fd5b600080fd5b601f909101601f19168101906001600160401b0382119082101761015157604052565b634e487b7160e01b600052604160045260246000fd5b9081602091031261012957516001600160a01b0381168103610129579056fe6080604052600436101561001b575b361561001957600080fd5b005b60003560e01c80630542975c146100cb5780631b11d0ff146100c6578063679d86a7146100c1578063715018a6146100bc5780637535d246146100b75780637c1d9539146100b25780638da5cb5b146100ad5780639e281a98146100a8578063c08bcc65146100a3578063e086e5ec1461009e5763f2fde38b0361000e57610794565b610750565b6106cf565b610649565b610620565b610571565b61052c565b6104ce565b61048f565b610193565b6100e0565b60009103126100db57565b600080fd5b346100db5760003660031901126100db576040517f00000000000000000000000000000000000000000000000000000000000000006001600160a01b03168152602090f35b600435906001600160a01b03821682036100db57565b606435906001600160a01b03821682036100db57565b35906001600160a01b03821682036100db57565b9181601f840112156100db5782359167ffffffffffffffff83116100db57602083818601950101116100db57565b346100db5760a03660031901126100db576101ac610125565b6024356101b761013b565b9160843567ffffffffffffffff81116100db576101db610228913690600401610165565b919060018060a01b0392610220847f00000000000000000000000000000000000000000000000000000000000000001697610217893314610957565b85163014610999565b810190610a8e565b8051516040805163095ea7b360e01b8082526001600160a01b03909316600482015260248101879052909693909416936020936000938583604481888b5af19283156104505761031293610472575b506102bc8580835189610290825160018060a01b031690565b91015190828b83519301915af16102ae6102a8610b25565b91610b55565b878082518301019101610b93565b94866102dd6102d16102d18386510151610c58565b6001600160a01b031690565b8184018051518d518981526001600160a01b039091166004820152602481019990995297958691908290859082906044820190565b03925af19283156104505761036a82806103bd998e988c98610455575b5051805188906001600160a01b031691015190828983519301915af161035c610356610b25565b91610ba2565b858082518301019101610b93565b9561039061038861037d6044358e610bf7565b978896015186610bf7565b881015610c09565b8b519081526001600160a01b03909116600482015260248101929092529094859190829081906044820190565b0391895af1918215610450577fefe33e6cdb0dc5014bb0249a43460141424a940ce872e1d1a925fa69cdb76f5c94610415946103ff94610422575b5050610c4b565b8551948552602085015232939081906040820190565b0390a35160018152602090f35b8161044192903d10610449575b6104398183610877565b810190610b0d565b5038806103f8565b503d61042f565b610899565b61046b90893d8b11610449576104398183610877565b503861032f565b61048890873d8911610449576104398183610877565b5038610277565b346100db5760203660031901126100db576001600160a01b036104b0610125565b166000526001602052602060ff604060002054166040519015158152f35b346100db57600080600319360112610529576104e861081c565b80546001600160a01b03198116825581906001600160a01b03167f8be0079c531659141344cd1fd0a4f28419497f9722a3daafe3b4186f6b6457e08280a380f35b80fd5b346100db5760003660031901126100db576040517f00000000000000000000000000000000000000000000000000000000000000006001600160a01b03168152602090f35b346100db5760603660031901126100db5761058a610125565b60443567ffffffffffffffff81116100db576105aa903690600401610165565b9033600052600160205260ff60406000205416801561060c575b156105d65761001992602435906108a5565b60405162461bcd60e51b815260206004820152600e60248201526d139bdd08185d5d1a1bdc9a5e995960921b6044820152606490fd5b506000546001600160a01b031633146105c4565b346100db5760003660031901126100db576000546040516001600160a01b039091168152602090f35b346100db5760403660031901126100db57610662610125565b61066a61081c565b6000805460405163a9059cbb60e01b81526001600160a01b0391821660048201526024803590820152926020928492604492849291165af18015610450576106ae57005b6100199060203d8111610449576104398183610877565b801515036100db57565b346100db5760403660031901126100db576106e8610125565b7f61e59429ef81596566b5f5d75085a25d4043be4dd2ba28cc98d8677718e6d0c3602060243592610718846106c5565b61072061081c565b60018060a01b031692836000526001825260406000209015159060ff1981541660ff8316179055604051908152a2005b346100db576000806003193601126105295761076a61081c565b8080808060018060a01b03815416479082821561078b575bf1156104505780f35b506108fc610782565b346100db5760203660031901126100db576107ad610125565b6107b561081c565b6001600160a01b03908116801561080357600080546001600160a01b03198116831782559092167f8be0079c531659141344cd1fd0a4f28419497f9722a3daafe3b4186f6b6457e08380a380f35b604051631e4fbdf760e01b815260006004820152602490fd5b6000546001600160a01b0316330361083057565b60405163118cdaa760e01b8152336004820152602490fd5b634e487b7160e01b600052604160045260246000fd5b67ffffffffffffffff811161087257604052565b610848565b90601f8019910116810190811067ffffffffffffffff82111761087257604052565b6040513d6000823e3d90fd5b9192916001600160a01b037f0000000000000000000000000000000000000000000000000000000000000000811691823b156100db5760c460009591828793604051998a98899788956310ac2ddf60e21b8752306004880152166024860152604485015260a060648501528160a48501528484013783838284010152836084830152601f801991011681010301925af18015610450576109425750565b8061094f6109559261085e565b806100d0565b565b1561095e57565b60405162461bcd60e51b815260206004820152601360248201527210d85b1b195c881b5d5cdd08189948141bdbdb606a1b6044820152606490fd5b156109a057565b60405162461bcd60e51b815260206004820152601f60248201527f496e69746961746f72206d757374206265207468697320636f6e7472616374006044820152606490fd5b67ffffffffffffffff811161087257601f01601f191660200190565b91906040838203126100db576040805167ffffffffffffffff9491810185811182821017610872576040528094610a3783610151565b8252602092838101359182116100db570183601f820112156100db57803590610a5f826109e5565b94610a6d6040519687610877565b8286528483830101116100db57816000928580930183880137850101520152565b906020828203126100db57813567ffffffffffffffff928382116100db57016060818303126100db576040519260608401848110828211176108725760405281358181116100db5783610ae2918401610a01565b845260208201359081116100db57604092610afe918301610a01565b60208401520135604082015290565b908160209103126100db5751610b22816106c5565b90565b3d15610b50573d90610b36826109e5565b91610b446040519384610877565b82523d6000602084013e565b606090565b15610b5c57565b60405162461bcd60e51b815260206004820152600f60248201526e109d5e481cddd85c0819985a5b1959608a1b6044820152606490fd5b908160209103126100db575190565b15610ba957565b60405162461bcd60e51b815260206004820152601060248201526f14d95b1b081cddd85c0819985a5b195960821b6044820152606490fd5b634e487b7160e01b600052601160045260246000fd5b91908201809211610c0457565b610be1565b15610c1057565b60405162461bcd60e51b8152602060048201526013602482015272125b9cdd59999a58da595b9d081c1c9bd99a5d606a1b6044820152606490fd5b91908203918211610c0457565b6024815110610c68576024015190565b60405162461bcd60e51b8152602060048201526011602482015270496e76616c69642073776170206461746160781b6044820152606490fdfea2646970667358221220b48e2be11fe022c046b37f36337a1e30ca66b6e1d730f8cbe7e6f113472402d464736f6c63430008140033","opcodes":"PUSH1 0xC0 DUP1 PUSH1 0x40 MSTORE CALLVALUE PUSH2 0x129 JUMPI PUSH1 0x4 PUSH1 0x20 PUSH2 0xE5E DUP1 CODESIZE SUB DUP1 SWAP2 PUSH2 0x20 DUP3 DUP8 PUSH2 0x12E JUMP JUMPDEST DUP6 CODECOPY PUSH1 0x1 PUSH1 0x1 PUSH1 0xA0 SHL SUB SWAP4 DUP5 SWAP2 PUSH2 0x3A SWAP2 SWAP1 DUP2 ADD SWAP1 PUSH2 0x167 JUMP JUMPDEST AND DUP1 PUSH1 0x80 MSTORE PUSH1 0x40 MLOAD SWAP3 DUP4 DUP1 SWAP3 PUSH4 0x26B1D5F PUSH1 0xE0 SHL DUP3 MSTORE GAS STATICCALL DUP1 ISZERO PUSH2 0x11D JUMPI DUP3 SWAP2 PUSH1 0x0 SWAP2 PUSH2 0xEF JUMPI JUMPDEST POP AND PUSH1 0xA0 MSTORE CALLER ISZERO PUSH2 0xD6 JUMPI PUSH1 0x0 SLOAD CALLER PUSH1 0x1 DUP1 PUSH1 0xA0 SHL SUB NOT DUP3 AND OR PUSH1 0x0 SSTORE PUSH1 0x40 MLOAD SWAP2 CALLER SWAP2 AND PUSH32 0x8BE0079C531659141344CD1FD0A4F28419497F9722A3DAAFE3B4186F6B6457E0 PUSH1 0x0 DUP1 LOG3 PUSH2 0xCD7 SWAP1 DUP2 PUSH2 0x187 DUP3 CODECOPY PUSH1 0x80 MLOAD DUP2 PUSH1 0xF6 ADD MSTORE PUSH1 0xA0 MLOAD DUP2 DUP2 DUP2 PUSH2 0x1EB ADD MSTORE DUP2 DUP2 PUSH2 0x542 ADD MSTORE PUSH2 0x8B2 ADD MSTORE RETURN JUMPDEST PUSH1 0x40 MLOAD PUSH4 0x1E4FBDF7 PUSH1 0xE0 SHL DUP2 MSTORE PUSH1 0x0 PUSH1 0x4 DUP3 ADD MSTORE PUSH1 0x24 SWAP1 REVERT JUMPDEST PUSH2 0x110 SWAP2 POP PUSH1 0x20 RETURNDATASIZE DUP2 GT PUSH2 0x116 JUMPI JUMPDEST PUSH2 0x108 DUP2 DUP4 PUSH2 0x12E JUMP JUMPDEST DUP2 ADD SWAP1 PUSH2 0x167 JUMP JUMPDEST CODESIZE PUSH2 0x62 JUMP JUMPDEST POP RETURNDATASIZE PUSH2 0xFE JUMP JUMPDEST PUSH1 0x40 MLOAD RETURNDATASIZE PUSH1 0x0 DUP3 RETURNDATACOPY RETURNDATASIZE SWAP1 REVERT JUMPDEST PUSH1 0x0 DUP1 REVERT JUMPDEST PUSH1 0x1F SWAP1 SWAP2 ADD PUSH1 0x1F NOT AND DUP2 ADD SWAP1 PUSH1 0x1 PUSH1 0x1 PUSH1 0x40 SHL SUB DUP3 GT SWAP1 DUP3 LT OR PUSH2 0x151 JUMPI PUSH1 0x40 MSTORE JUMP JUMPDEST PUSH4 0x4E487B71 PUSH1 0xE0 SHL PUSH1 0x0 MSTORE PUSH1 0x41 PUSH1 0x4 MSTORE PUSH1 0x24 PUSH1 0x0 REVERT JUMPDEST SWAP1 DUP2 PUSH1 0x20 SWAP2 SUB SLT PUSH2 0x129 JUMPI MLOAD PUSH1 0x1 PUSH1 0x1 PUSH1 0xA0 SHL SUB DUP2 AND DUP2 SUB PUSH2 0x129 JUMPI SWAP1 JUMP INVALID PUSH1 0x80 PUSH1 0x40 MSTORE PUSH1 0x4 CALLDATASIZE LT ISZERO PUSH2 0x1B JUMPI JUMPDEST CALLDATASIZE ISZERO PUSH2 0x19 JUMPI PUSH1 0x0 DUP1 REVERT JUMPDEST STOP JUMPDEST PUSH1 0x0 CALLDATALOAD PUSH1 0xE0 SHR DUP1 PUSH4 0x542975C EQ PUSH2 0xCB JUMPI DUP1 PUSH4 0x1B11D0FF EQ PUSH2 0xC6 JUMPI DUP1 PUSH4 0x679D86A7 EQ PUSH2 0xC1 JUMPI DUP1 PUSH4 0x715018A6 EQ PUSH2 0xBC JUMPI DUP1 PUSH4 0x7535D246 EQ PUSH2 0xB7 JUMPI DUP1 PUSH4 0x7C1D9539 EQ PUSH2 0xB2 JUMPI DUP1 PUSH4 0x8DA5CB5B EQ PUSH2 0xAD JUMPI DUP1 PUSH4 0x9E281A98 EQ PUSH2 0xA8 JUMPI DUP1 PUSH4 0xC08BCC65 EQ PUSH2 0xA3 JUMPI DUP1 PUSH4 0xE086E5EC EQ PUSH2 0x9E JUMPI PUSH4 0xF2FDE38B SUB PUSH2 0xE JUMPI PUSH2 0x794 JUMP JUMPDEST PUSH2 0x750 JUMP JUMPDEST PUSH2 0x6CF JUMP JUMPDEST PUSH2 0x649 JUMP JUMPDEST PUSH2 0x620 JUMP JUMPDEST PUSH2 0x571 JUMP JUMPDEST PUSH2 0x52C JUMP JUMPDEST PUSH2 0x4CE JUMP JUMPDEST PUSH2 0x48F JUMP JUMPDEST PUSH2 0x193 JUMP JUMPDEST PUSH2 0xE0 JUMP JUMPDEST PUSH1 0x0 SWAP2 SUB SLT PUSH2 0xDB JUMPI JUMP JUMPDEST PUSH1 0x0 DUP1 REVERT JUMPDEST CALLVALUE PUSH2 0xDB JUMPI PUSH1 0x0 CALLDATASIZE PUSH1 0x3 NOT ADD SLT PUSH2 0xDB JUMPI PUSH1 0x40 MLOAD PUSH32 0x0 PUSH1 0x1 PUSH1 0x1 PUSH1 0xA0 SHL SUB AND DUP2 MSTORE PUSH1 0x20 SWAP1 RETURN JUMPDEST PUSH1 0x4 CALLDATALOAD SWAP1 PUSH1 0x1 PUSH1 0x1 PUSH1 0xA0 SHL SUB DUP3 AND DUP3 SUB PUSH2 0xDB JUMPI JUMP JUMPDEST PUSH1 0x64 CALLDATALOAD SWAP1 PUSH1 0x1 PUSH1 0x1 PUSH1 0xA0 SHL SUB DUP3 AND DUP3 SUB PUSH2 0xDB JUMPI JUMP JUMPDEST CALLDATALOAD SWAP1 PUSH1 0x1 PUSH1 0x1 PUSH1 0xA0 SHL SUB DUP3 AND DUP3 SUB PUSH2 0xDB JUMPI JUMP JUMPDEST SWAP2 DUP2 PUSH1 0x1F DUP5 ADD SLT ISZERO PUSH2 0xDB JUMPI DUP3 CALLDATALOAD SWAP2 PUSH8 0xFFFFFFFFFFFFFFFF DUP4 GT PUSH2 0xDB JUMPI PUSH1 0x20 DUP4 DUP2 DUP7 ADD SWAP6 ADD ADD GT PUSH2 0xDB JUMPI JUMP JUMPDEST CALLVALUE PUSH2 0xDB JUMPI PUSH1 0xA0 CALLDATASIZE PUSH1 0x3 NOT ADD SLT PUSH2 0xDB JUMPI PUSH2 0x1AC PUSH2 0x125 JUMP JUMPDEST PUSH1 0x24 CALLDATALOAD PUSH2 0x1B7 PUSH2 0x13B JUMP JUMPDEST SWAP2 PUSH1 0x84 CALLDATALOAD PUSH8 0xFFFFFFFFFFFFFFFF DUP2 GT PUSH2 0xDB JUMPI PUSH2 0x1DB PUSH2 0x228 SWAP2 CALLDATASIZE SWAP1 PUSH1 0x4 ADD PUSH2 0x165 JUMP JUMPDEST SWAP2 SWAP1 PUSH1 0x1 DUP1 PUSH1 0xA0 SHL SUB SWAP3 PUSH2 0x220 DUP5 PUSH32 0x0 AND SWAP8 PUSH2 0x217 DUP10 CALLER EQ PUSH2 0x957 JUMP JUMPDEST DUP6 AND ADDRESS EQ PUSH2 0x999 JUMP JUMPDEST DUP2 ADD SWAP1 PUSH2 0xA8E JUMP JUMPDEST DUP1 MLOAD MLOAD PUSH1 0x40 DUP1 MLOAD PUSH4 0x95EA7B3 PUSH1 0xE0 SHL DUP1 DUP3 MSTORE PUSH1 0x1 PUSH1 0x1 PUSH1 0xA0 SHL SUB SWAP1 SWAP4 AND PUSH1 0x4 DUP3 ADD MSTORE PUSH1 0x24 DUP2 ADD DUP8 SWAP1 MSTORE SWAP1 SWAP7 SWAP4 SWAP1 SWAP5 AND SWAP4 PUSH1 0x20 SWAP4 PUSH1 0x0 SWAP4 DUP6 DUP4 PUSH1 0x44 DUP2 DUP9 DUP12 GAS CALL SWAP3 DUP4 ISZERO PUSH2 0x450 JUMPI PUSH2 0x312 SWAP4 PUSH2 0x472 JUMPI JUMPDEST POP PUSH2 0x2BC DUP6 DUP1 DUP4 MLOAD DUP10 PUSH2 0x290 DUP3 MLOAD PUSH1 0x1 DUP1 PUSH1 0xA0 SHL SUB AND SWAP1 JUMP JUMPDEST SWAP2 ADD MLOAD SWAP1 DUP3 DUP12 DUP4 MLOAD SWAP4 ADD SWAP2 GAS CALL PUSH2 0x2AE PUSH2 0x2A8 PUSH2 0xB25 JUMP JUMPDEST SWAP2 PUSH2 0xB55 JUMP JUMPDEST DUP8 DUP1 DUP3 MLOAD DUP4 ADD ADD SWAP2 ADD PUSH2 0xB93 JUMP JUMPDEST SWAP5 DUP7 PUSH2 0x2DD PUSH2 0x2D1 PUSH2 0x2D1 DUP4 DUP7 MLOAD ADD MLOAD PUSH2 0xC58 JUMP JUMPDEST PUSH1 0x1 PUSH1 0x1 PUSH1 0xA0 SHL SUB AND SWAP1 JUMP JUMPDEST DUP2 DUP5 ADD DUP1 MLOAD MLOAD DUP14 MLOAD DUP10 DUP2 MSTORE PUSH1 0x1 PUSH1 0x1 PUSH1 0xA0 SHL SUB SWAP1 SWAP2 AND PUSH1 0x4 DUP3 ADD MSTORE PUSH1 0x24 DUP2 ADD SWAP10 SWAP1 SWAP10 MSTORE SWAP8 SWAP6 DUP7 SWAP2 SWAP1 DUP3 SWAP1 DUP6 SWAP1 DUP3 SWAP1 PUSH1 0x44 DUP3 ADD SWAP1 JUMP JUMPDEST SUB SWAP3 GAS CALL SWAP3 DUP4 ISZERO PUSH2 0x450 JUMPI PUSH2 0x36A DUP3 DUP1 PUSH2 0x3BD SWAP10 DUP15 SWAP9 DUP13 SWAP9 PUSH2 0x455 JUMPI JUMPDEST POP MLOAD DUP1 MLOAD DUP9 SWAP1 PUSH1 0x1 PUSH1 0x1 PUSH1 0xA0 SHL SUB AND SWAP2 ADD MLOAD SWAP1 DUP3 DUP10 DUP4 MLOAD SWAP4 ADD SWAP2 GAS CALL PUSH2 0x35C PUSH2 0x356 PUSH2 0xB25 JUMP JUMPDEST SWAP2 PUSH2 0xBA2 JUMP JUMPDEST DUP6 DUP1 DUP3 MLOAD DUP4 ADD ADD SWAP2 ADD PUSH2 0xB93 JUMP JUMPDEST SWAP6 PUSH2 0x390 PUSH2 0x388 PUSH2 0x37D PUSH1 0x44 CALLDATALOAD DUP15 PUSH2 0xBF7 JUMP JUMPDEST SWAP8 DUP9 SWAP7 ADD MLOAD DUP7 PUSH2 0xBF7 JUMP JUMPDEST DUP9 LT ISZERO PUSH2 0xC09 JUMP JUMPDEST DUP12 MLOAD SWAP1 DUP2 MSTORE PUSH1 0x1 PUSH1 0x1 PUSH1 0xA0 SHL SUB SWAP1 SWAP2 AND PUSH1 0x4 DUP3 ADD MSTORE PUSH1 0x24 DUP2 ADD SWAP3 SWAP1 SWAP3 MSTORE SWAP1 SWAP5 DUP6 SWAP2 SWAP1 DUP3 SWAP1 DUP2 SWAP1 PUSH1 0x44 DUP3 ADD SWAP1 JUMP JUMPDEST SUB SWAP2 DUP10 GAS CALL SWAP2 DUP3 ISZERO PUSH2 0x450 JUMPI PUSH32 0xEFE33E6CDB0DC5014BB0249A43460141424A940CE872E1D1A925FA69CDB76F5C SWAP5 PUSH2 0x415 SWAP5 PUSH2 0x3FF SWAP5 PUSH2 0x422 JUMPI JUMPDEST POP POP PUSH2 0xC4B JUMP JUMPDEST DUP6 MLOAD SWAP5 DUP6 MSTORE PUSH1 0x20 DUP6 ADD MSTORE ORIGIN SWAP4 SWAP1 DUP2 SWAP1 PUSH1 0x40 DUP3 ADD SWAP1 JUMP JUMPDEST SUB SWAP1 LOG3 MLOAD PUSH1 0x1 DUP2 MSTORE PUSH1 0x20 SWAP1 RETURN JUMPDEST DUP2 PUSH2 0x441 SWAP3 SWAP1 RETURNDATASIZE LT PUSH2 0x449 JUMPI JUMPDEST PUSH2 0x439 DUP2 DUP4 PUSH2 0x877 JUMP JUMPDEST DUP2 ADD SWAP1 PUSH2 0xB0D JUMP JUMPDEST POP CODESIZE DUP1 PUSH2 0x3F8 JUMP JUMPDEST POP RETURNDATASIZE PUSH2 0x42F JUMP JUMPDEST PUSH2 0x899 JUMP JUMPDEST PUSH2 0x46B SWAP1 DUP10 RETURNDATASIZE DUP12 GT PUSH2 0x449 JUMPI PUSH2 0x439 DUP2 DUP4 PUSH2 0x877 JUMP JUMPDEST POP CODESIZE PUSH2 0x32F JUMP JUMPDEST PUSH2 0x488 SWAP1 DUP8 RETURNDATASIZE DUP10 GT PUSH2 0x449 JUMPI PUSH2 0x439 DUP2 DUP4 PUSH2 0x877 JUMP JUMPDEST POP CODESIZE PUSH2 0x277 JUMP JUMPDEST CALLVALUE PUSH2 0xDB JUMPI PUSH1 0x20 CALLDATASIZE PUSH1 0x3 NOT ADD SLT PUSH2 0xDB JUMPI PUSH1 0x1 PUSH1 0x1 PUSH1 0xA0 SHL SUB PUSH2 0x4B0 PUSH2 0x125 JUMP JUMPDEST AND PUSH1 0x0 MSTORE PUSH1 0x1 PUSH1 0x20 MSTORE PUSH1 0x20 PUSH1 0xFF PUSH1 0x40 PUSH1 0x0 KECCAK256 SLOAD AND PUSH1 0x40 MLOAD SWAP1 ISZERO ISZERO DUP2 MSTORE RETURN JUMPDEST CALLVALUE PUSH2 0xDB JUMPI PUSH1 0x0 DUP1 PUSH1 0x3 NOT CALLDATASIZE ADD SLT PUSH2 0x529 JUMPI PUSH2 0x4E8 PUSH2 0x81C JUMP JUMPDEST DUP1 SLOAD PUSH1 0x1 PUSH1 0x1 PUSH1 0xA0 SHL SUB NOT DUP2 AND DUP3 SSTORE DUP2 SWAP1 PUSH1 0x1 PUSH1 0x1 PUSH1 0xA0 SHL SUB AND PUSH32 0x8BE0079C531659141344CD1FD0A4F28419497F9722A3DAAFE3B4186F6B6457E0 DUP3 DUP1 LOG3 DUP1 RETURN JUMPDEST DUP1 REVERT JUMPDEST CALLVALUE PUSH2 0xDB JUMPI PUSH1 0x0 CALLDATASIZE PUSH1 0x3 NOT ADD SLT PUSH2 0xDB JUMPI PUSH1 0x40 MLOAD PUSH32 0x0 PUSH1 0x1 PUSH1 0x1 PUSH1 0xA0 SHL SUB AND DUP2 MSTORE PUSH1 0x20 SWAP1 RETURN JUMPDEST CALLVALUE PUSH2 0xDB JUMPI PUSH1 0x60 CALLDATASIZE PUSH1 0x3 NOT ADD SLT PUSH2 0xDB JUMPI PUSH2 0x58A PUSH2 0x125 JUMP JUMPDEST PUSH1 0x44 CALLDATALOAD PUSH8 0xFFFFFFFFFFFFFFFF DUP2 GT PUSH2 0xDB JUMPI PUSH2 0x5AA SWAP1 CALLDATASIZE SWAP1 PUSH1 0x4 ADD PUSH2 0x165 JUMP JUMPDEST SWAP1 CALLER PUSH1 0x0 MSTORE PUSH1 0x1 PUSH1 0x20 MSTORE PUSH1 0xFF PUSH1 0x40 PUSH1 0x0 KECCAK256 SLOAD AND DUP1 ISZERO PUSH2 0x60C JUMPI JUMPDEST ISZERO PUSH2 0x5D6 JUMPI PUSH2 0x19 SWAP3 PUSH1 0x24 CALLDATALOAD SWAP1 PUSH2 0x8A5 JUMP JUMPDEST PUSH1 0x40 MLOAD PUSH3 0x461BCD PUSH1 0xE5 SHL DUP2 MSTORE PUSH1 0x20 PUSH1 0x4 DUP3 ADD MSTORE PUSH1 0xE PUSH1 0x24 DUP3 ADD MSTORE PUSH14 0x139BDD08185D5D1A1BDC9A5E9959 PUSH1 0x92 SHL PUSH1 0x44 DUP3 ADD MSTORE PUSH1 0x64 SWAP1 REVERT JUMPDEST POP PUSH1 0x0 SLOAD PUSH1 0x1 PUSH1 0x1 PUSH1 0xA0 SHL SUB AND CALLER EQ PUSH2 0x5C4 JUMP JUMPDEST CALLVALUE PUSH2 0xDB JUMPI PUSH1 0x0 CALLDATASIZE PUSH1 0x3 NOT ADD SLT PUSH2 0xDB JUMPI PUSH1 0x0 SLOAD PUSH1 0x40 MLOAD PUSH1 0x1 PUSH1 0x1 PUSH1 0xA0 SHL SUB SWAP1 SWAP2 AND DUP2 MSTORE PUSH1 0x20 SWAP1 RETURN JUMPDEST CALLVALUE PUSH2 0xDB JUMPI PUSH1 0x40 CALLDATASIZE PUSH1 0x3 NOT ADD SLT PUSH2 0xDB JUMPI PUSH2 0x662 PUSH2 0x125 JUMP JUMPDEST PUSH2 0x66A PUSH2 0x81C JUMP JUMPDEST PUSH1 0x0 DUP1 SLOAD PUSH1 0x40 MLOAD PUSH4 0xA9059CBB PUSH1 0xE0 SHL DUP2 MSTORE PUSH1 0x1 PUSH1 0x1 PUSH1 0xA0 SHL SUB SWAP2 DUP3 AND PUSH1 0x4 DUP3 ADD MSTORE PUSH1 0x24 DUP1 CALLDATALOAD SWAP1 DUP3 ADD MSTORE SWAP3 PUSH1 0x20 SWAP3 DUP5 SWAP3 PUSH1 0x44 SWAP3 DUP5 SWAP3 SWAP2 AND GAS CALL DUP1 ISZERO PUSH2 0x450 JUMPI PUSH2 0x6AE JUMPI STOP JUMPDEST PUSH2 0x19 SWAP1 PUSH1 0x20 RETURNDATASIZE DUP2 GT PUSH2 0x449 JUMPI PUSH2 0x439 DUP2 DUP4 PUSH2 0x877 JUMP JUMPDEST DUP1 ISZERO ISZERO SUB PUSH2 0xDB JUMPI JUMP JUMPDEST CALLVALUE PUSH2 0xDB JUMPI PUSH1 0x40 CALLDATASIZE PUSH1 0x3 NOT ADD SLT PUSH2 0xDB JUMPI PUSH2 0x6E8 PUSH2 0x125 JUMP JUMPDEST PUSH32 0x61E59429EF81596566B5F5D75085A25D4043BE4DD2BA28CC98D8677718E6D0C3 PUSH1 0x20 PUSH1 0x24 CALLDATALOAD SWAP3 PUSH2 0x718 DUP5 PUSH2 0x6C5 JUMP JUMPDEST PUSH2 0x720 PUSH2 0x81C JUMP JUMPDEST PUSH1 0x1 DUP1 PUSH1 0xA0 SHL SUB AND SWAP3 DUP4 PUSH1 0x0 MSTORE PUSH1 0x1 DUP3 MSTORE PUSH1 0x40 PUSH1 0x0 KECCAK256 SWAP1 ISZERO ISZERO SWAP1 PUSH1 0xFF NOT DUP2 SLOAD AND PUSH1 0xFF DUP4 AND OR SWAP1 SSTORE PUSH1 0x40 MLOAD SWAP1 DUP2 MSTORE LOG2 STOP JUMPDEST CALLVALUE PUSH2 0xDB JUMPI PUSH1 0x0 DUP1 PUSH1 0x3 NOT CALLDATASIZE ADD SLT PUSH2 0x529 JUMPI PUSH2 0x76A PUSH2 0x81C JUMP JUMPDEST DUP1 DUP1 DUP1 DUP1 PUSH1 0x1 DUP1 PUSH1 0xA0 SHL SUB DUP2 SLOAD AND SELFBALANCE SWAP1 DUP3 DUP3 ISZERO PUSH2 0x78B JUMPI JUMPDEST CALL ISZERO PUSH2 0x450 JUMPI DUP1 RETURN JUMPDEST POP PUSH2 0x8FC PUSH2 0x782 JUMP JUMPDEST CALLVALUE PUSH2 0xDB JUMPI PUSH1 0x20 CALLDATASIZE PUSH1 0x3 NOT ADD SLT PUSH2 0xDB JUMPI PUSH2 0x7AD PUSH2 0x125 JUMP JUMPDEST PUSH2 0x7B5 PUSH2 0x81C JUMP JUMPDEST PUSH1 0x1 PUSH1 0x1 PUSH1 0xA0 SHL SUB SWAP1 DUP2 AND DUP1 ISZERO PUSH2 0x803 JUMPI PUSH1 0x0 DUP1 SLOAD PUSH1 0x1 PUSH1 0x1 PUSH1 0xA0 SHL SUB NOT DUP2 AND DUP4 OR DUP3 SSTORE SWAP1 SWAP3 AND PUSH32 0x8BE0079C531659141344CD1FD0A4F28419497F9722A3DAAFE3B4186F6B6457E0 DUP4 DUP1 LOG3 DUP1 RETURN JUMPDEST PUSH1 0x40 MLOAD PUSH4 0x1E4FBDF7 PUSH1 0xE0 SHL DUP2 MSTORE PUSH1 0x0 PUSH1 0x4 DUP3 ADD MSTORE PUSH1 0x24 SWAP1 REVERT JUMPDEST PUSH1 0x0 SLOAD PUSH1 0x1 PUSH1 0x1 PUSH1 0xA0 SHL SUB AND CALLER SUB PUSH2 0x830 JUMPI JUMP JUMPDEST PUSH1 0x40 MLOAD PUSH4 0x118CDAA7 PUSH1 0xE0 SHL DUP2 MSTORE CALLER PUSH1 0x4 DUP3 ADD MSTORE PUSH1 0x24 SWAP1 REVERT JUMPDEST PUSH4 0x4E487B71 PUSH1 0xE0 SHL PUSH1 0x0 MSTORE PUSH1 0x41 PUSH1 0x4 MSTORE PUSH1 0x24 PUSH1 0x0 REVERT JUMPDEST PUSH8 0xFFFFFFFFFFFFFFFF DUP2 GT PUSH2 0x872 JUMPI PUSH1 0x40 MSTORE JUMP JUMPDEST PUSH2 0x848 JUMP JUMPDEST SWAP1 PUSH1 0x1F DUP1 NOT SWAP2 ADD AND DUP2 ADD SWAP1 DUP2 LT PUSH8 0xFFFFFFFFFFFFFFFF DUP3 GT OR PUSH2 0x872 JUMPI PUSH1 0x40 MSTORE JUMP JUMPDEST PUSH1 0x40 MLOAD RETURNDATASIZE PUSH1 0x0 DUP3 RETURNDATACOPY RETURNDATASIZE SWAP1 REVERT JUMPDEST SWAP2 SWAP3 SWAP2 PUSH1 0x1 PUSH1 0x1 PUSH1 0xA0 SHL SUB PUSH32 0x0 DUP2 AND SWAP2 DUP3 EXTCODESIZE ISZERO PUSH2 0xDB JUMPI PUSH1 0xC4 PUSH1 0x0 SWAP6 SWAP2 DUP3 DUP8 SWAP4 PUSH1 0x40 MLOAD SWAP10 DUP11 SWAP9 DUP10 SWAP8 DUP9 SWAP6 PUSH4 0x10AC2DDF PUSH1 0xE2 SHL DUP8 MSTORE ADDRESS PUSH1 0x4 DUP9 ADD MSTORE AND PUSH1 0x24 DUP7 ADD MSTORE PUSH1 0x44 DUP6 ADD MSTORE PUSH1 0xA0 PUSH1 0x64 DUP6 ADD MSTORE DUP2 PUSH1 0xA4 DUP6 ADD MSTORE DUP5 DUP5 ADD CALLDATACOPY DUP4 DUP4 DUP3 DUP5 ADD ADD MSTORE DUP4 PUSH1 0x84 DUP4 ADD MSTORE PUSH1 0x1F DUP1 NOT SWAP2 ADD AND DUP2 ADD SUB ADD SWAP3 GAS CALL DUP1 ISZERO PUSH2 0x450 JUMPI PUSH2 0x942 JUMPI POP JUMP JUMPDEST DUP1 PUSH2 0x94F PUSH2 0x955 SWAP3 PUSH2 0x85E JUMP JUMPDEST DUP1 PUSH2 0xD0 JUMP JUMPDEST JUMP JUMPDEST ISZERO PUSH2 0x95E JUMPI JUMP JUMPDEST PUSH1 0x40 MLOAD PUSH3 0x461BCD PUSH1 0xE5 SHL DUP2 MSTORE PUSH1 0x20 PUSH1 0x4 DUP3 ADD MSTORE PUSH1 0x13 PUSH1 0x24 DUP3 ADD MSTORE PUSH19 0x10D85B1B195C881B5D5CDD08189948141BDBDB PUSH1 0x6A SHL PUSH1 0x44 DUP3 ADD MSTORE PUSH1 0x64 SWAP1 REVERT JUMPDEST ISZERO PUSH2 0x9A0 JUMPI JUMP JUMPDEST PUSH1 0x40 MLOAD PUSH3 0x461BCD PUSH1 0xE5 SHL DUP2 MSTORE PUSH1 0x20 PUSH1 0x4 DUP3 ADD MSTORE PUSH1 0x1F PUSH1 0x24 DUP3 ADD MSTORE PUSH32 0x496E69746961746F72206D757374206265207468697320636F6E747261637400 PUSH1 0x44 DUP3 ADD MSTORE PUSH1 0x64 SWAP1 REVERT JUMPDEST PUSH8 0xFFFFFFFFFFFFFFFF DUP2 GT PUSH2 0x872 JUMPI PUSH1 0x1F ADD PUSH1 0x1F NOT AND PUSH1 0x20 ADD SWAP1 JUMP JUMPDEST SWAP2 SWAP1 PUSH1 0x40 DUP4 DUP3 SUB SLT PUSH2 0xDB JUMPI PUSH1 0x40 DUP1 MLOAD PUSH8 0xFFFFFFFFFFFFFFFF SWAP5 SWAP2 DUP2 ADD DUP6 DUP2 GT DUP3 DUP3 LT OR PUSH2 0x872 JUMPI PUSH1 0x40 MSTORE DUP1 SWAP5 PUSH2 0xA37 DUP4 PUSH2 0x151 JUMP JUMPDEST DUP3 MSTORE PUSH1 0x20 SWAP3 DUP4 DUP2 ADD CALLDATALOAD SWAP2 DUP3 GT PUSH2 0xDB JUMPI ADD DUP4 PUSH1 0x1F DUP3 ADD SLT ISZERO PUSH2 0xDB JUMPI DUP1 CALLDATALOAD SWAP1 PUSH2 0xA5F DUP3 PUSH2 0x9E5 JUMP JUMPDEST SWAP5 PUSH2 0xA6D PUSH1 0x40 MLOAD SWAP7 DUP8 PUSH2 0x877 JUMP JUMPDEST DUP3 DUP7 MSTORE DUP5 DUP4 DUP4 ADD ADD GT PUSH2 0xDB JUMPI DUP2 PUSH1 0x0 SWAP3 DUP6 DUP1 SWAP4 ADD DUP4 DUP9 ADD CALLDATACOPY DUP6 ADD ADD MSTORE ADD MSTORE JUMP JUMPDEST SWAP1 PUSH1 0x20 DUP3 DUP3 SUB SLT PUSH2 0xDB JUMPI DUP2 CALLDATALOAD PUSH8 0xFFFFFFFFFFFFFFFF SWAP3 DUP4 DUP3 GT PUSH2 0xDB JUMPI ADD PUSH1 0x60 DUP2 DUP4 SUB SLT PUSH2 0xDB JUMPI PUSH1 0x40 MLOAD SWAP3 PUSH1 0x60 DUP5 ADD DUP5 DUP2 LT DUP3 DUP3 GT OR PUSH2 0x872 JUMPI PUSH1 0x40 MSTORE DUP2 CALLDATALOAD DUP2 DUP2 GT PUSH2 0xDB JUMPI DUP4 PUSH2 0xAE2 SWAP2 DUP5 ADD PUSH2 0xA01 JUMP JUMPDEST DUP5 MSTORE PUSH1 0x20 DUP3 ADD CALLDATALOAD SWAP1 DUP2 GT PUSH2 0xDB JUMPI PUSH1 0x40 SWAP3 PUSH2 0xAFE SWAP2 DUP4 ADD PUSH2 0xA01 JUMP JUMPDEST PUSH1 0x20 DUP5 ADD MSTORE ADD CALLDATALOAD PUSH1 0x40 DUP3 ADD MSTORE SWAP1 JUMP JUMPDEST SWAP1 DUP2 PUSH1 0x20 SWAP2 SUB SLT PUSH2 0xDB JUMPI MLOAD PUSH2 0xB22 DUP2 PUSH2 0x6C5 JUMP JUMPDEST SWAP1 JUMP JUMPDEST RETURNDATASIZE ISZERO PUSH2 0xB50 JUMPI RETURNDATASIZE SWAP1 PUSH2 0xB36 DUP3 PUSH2 0x9E5 JUMP JUMPDEST SWAP2 PUSH2 0xB44 PUSH1 0x40 MLOAD SWAP4 DUP5 PUSH2 0x877 JUMP JUMPDEST DUP3 MSTORE RETURNDATASIZE PUSH1 0x0 PUSH1 0x20 DUP5 ADD RETURNDATACOPY JUMP JUMPDEST PUSH1 0x60 SWAP1 JUMP JUMPDEST ISZERO PUSH2 0xB5C JUMPI JUMP JUMPDEST PUSH1 0x40 MLOAD PUSH3 0x461BCD PUSH1 0xE5 SHL DUP2 MSTORE PUSH1 0x20 PUSH1 0x4 DUP3 ADD MSTORE PUSH1 0xF PUSH1 0x24 DUP3 ADD MSTORE PUSH15 0x109D5E481CDDD85C0819985A5B1959 PUSH1 0x8A SHL PUSH1 0x44 DUP3 ADD MSTORE PUSH1 0x64 SWAP1 REVERT JUMPDEST SWAP1 DUP2 PUSH1 0x20 SWAP2 SUB SLT PUSH2 0xDB JUMPI MLOAD SWAP1 JUMP JUMPDEST ISZERO PUSH2 0xBA9 JUMPI JUMP JUMPDEST PUSH1 0x40 MLOAD PUSH3 0x461BCD PUSH1 0xE5 SHL DUP2 MSTORE PUSH1 0x20 PUSH1 0x4 DUP3 ADD MSTORE PUSH1 0x10 PUSH1 0x24 DUP3 ADD MSTORE PUSH16 0x14D95B1B081CDDD85C0819985A5B1959 PUSH1 0x82 SHL PUSH1 0x44 DUP3 ADD MSTORE PUSH1 0x64 SWAP1 REVERT JUMPDEST PUSH4 0x4E487B71 PUSH1 0xE0 SHL PUSH1 0x0 MSTORE PUSH1 0x11 PUSH1 0x4 MSTORE PUSH1 0x24 PUSH1 0x0 REVERT JUMPDEST SWAP2 SWAP1 DUP3 ADD DUP1 SWAP3 GT PUSH2 0xC04 JUMPI JUMP JUMPDEST PUSH2 0xBE1 JUMP JUMPDEST ISZERO PUSH2 0xC10 JUMPI JUMP JUMPDEST PUSH1 0x40 MLOAD PUSH3 0x461BCD PUSH1 0xE5 SHL DUP2 MSTORE PUSH1 0x20 PUSH1 0x4 DUP3 ADD MSTORE PUSH1 0x13 PUSH1 0x24 DUP3 ADD MSTORE PUSH19 0x125B9CDD59999A58DA595B9D081C1C9BD99A5D PUSH1 0x6A SHL PUSH1 0x44 DUP3 ADD MSTORE PUSH1 0x64 SWAP1 REVERT JUMPDEST SWAP2 SWAP1 DUP3 SUB SWAP2 DUP3 GT PUSH2 0xC04 JUMPI JUMP JUMPDEST PUSH1 0x24 DUP2 MLOAD LT PUSH2 0xC68 JUMPI PUSH1 0x24 ADD MLOAD SWAP1 JUMP JUMPDEST PUSH1 0x40 MLOAD PUSH3 0x461BCD PUSH1 0xE5 SHL DUP2 MSTORE PUSH1 0x20 PUSH1 0x4 DUP3 ADD MSTORE PUSH1 0x11 PUSH1 0x24 DUP3 ADD MSTORE PUSH17 0x496E76616C696420737761702064617461 PUSH1 0x78 SHL PUSH1 0x44 DUP3 ADD MSTORE PUSH1 0x64 SWAP1 REVERT INVALID LOG2 PUSH5 0x6970667358 0x22 SLT KECCAK256 0xB4 DUP15 0x2B 0xE1 0x1F 0xE0 0x22 0xC0 CHAINID 0xB3 PUSH32 0x36337A1E30CA66B6E1D730F8CBE7E6F113472402D464736F6C63430008140033 "},"methodIdentifiers":{"ADDRESSES_PROVIDER()":"0542975c","POOL()":"7535d246","authorizeExecutor(address,bool)":"c08bcc65","authorizedExecutors(address)":"679d86a7","executeArbitrage(address,uint256,bytes)":"7c1d9539","executeOperation(address,uint256,uint256,address,bytes)":"1b11d0ff","owner()":"8da5cb5b","renounceOwnership()":"715018a6","transferOwnership(address)":"f2fde38b","withdrawETH()":"e086e5ec","withdrawToken(address,uint256)":"9e281a98"}}}}}