{
  "_format": "hh-sol-artifact-1",
  "contractName": "ArbitrageExecutor",
  "sourceName": "contracts/ArbitrageExecutor.sol",
  "abi": [
    {
      "inputs": [
        {
          "internalType": "address",
          "name": "_addressProvider",
          "type": "address"
        }
      ],
      "stateMutability": "nonpayable",
      "type": "constructor"
    },
    {
      "inputs": [
        {
          "internalType": "address",
          "name": "owner",
          "type": "address"
        }
      ],
      "name": "OwnableInvalidOwner",
      "type": "error"
    },
    {
      "inputs": [
        {
          "internalType": "address",
          "name": "account",
          "type": "address"
        }
      ],
      "name": "OwnableUnauthorizedAccount",
      "type": "error"
    },
    {
      "anonymous": false,
      "inputs": [
        {
          "indexed": true,
          "internalType": "address",
          "name": "asset",
          "type": "address"
        },
        {
          "indexed": false,
          "internalType": "uint256",
          "name": "amount",
          "type": "uint256"
        },
        {
          "indexed": false,
          "internalType": "uint256",
          "name": "profit",
          "type": "uint256"
        },
        {
          "indexed": true,
          "internalType": "address",
          "name": "executor",
          "type": "address"
        }
      ],
      "name": "ArbitrageExecuted",
      "type": "event"
    },
    {
      "anonymous": false,
      "inputs": [
        {
          "indexed": true,
          "internalType": "address",
          "name": "executor",
          "type": "address"
        },
        {
          "indexed": false,
          "internalType": "bool",
          "name": "authorized",
          "type": "bool"
        }
      ],
      "name": "ExecutorAuthorized",
      "type": "event"
    },
    {
      "anonymous": false,
      "inputs": [
        {
          "indexed": true,
          "internalType": "address",
          "name": "previousOwner",
          "type": "address"
        },
        {
          "indexed": true,
          "internalType": "address",
          "name": "newOwner",
          "type": "address"
        }
      ],
      "name": "OwnershipTransferred",
      "type": "event"
    },
    {
      "inputs": [],
      "name": "ADDRESSES_PROVIDER",
      "outputs": [
        {
          "internalType": "contract IPoolAddressesProvider",
          "name": "",
          "type": "address"
        }
      ],
      "stateMutability": "view",
      "type": "function"
    },
    {
      "inputs": [],
      "name": "POOL",
      "outputs": [
        {
          "internalType": "contract IPool",
          "name": "",
          "type": "address"
        }
      ],
      "stateMutability": "view",
      "type": "function"
    },
    {
      "inputs": [
        {
          "internalType": "address",
          "name": "executor",
          "type": "address"
        },
        {
          "internalType": "bool",
          "name": "authorized",
          "type": "bool"
        }
      ],
      "name": "authorizeExecutor",
      "outputs": [],
      "stateMutability": "nonpayable",
      "type": "function"
    },
    {
      "inputs": [
        {
          "internalType": "address",
          "name": "",
          "type": "address"
        }
      ],
      "name": "authorizedExecutors",
      "outputs": [
        {
          "internalType": "bool",
          "name": "",
          "type": "bool"
        }
      ],
      "stateMutability": "view",
      "type": "function"
    },
    {
      "inputs": [
        {
          "internalType": "address",
          "name": "asset",
          "type": "address"
        },
        {
          "internalType": "uint256",
          "name": "amount",
          "type": "uint256"
        },
        {
          "internalType": "bytes",
          "name": "params",
          "type": "bytes"
        }
      ],
      "name": "executeArbitrage",
      "outputs": [],
      "stateMutability": "nonpayable",
      "type": "function"
    },
    {
      "inputs": [
        {
          "internalType": "address",
          "name": "asset",
          "type": "address"
        },
        {
          "internalType": "uint256",
          "name": "amount",
          "type": "uint256"
        },
        {
          "internalType": "uint256",
          "name": "premium",
          "type": "uint256"
        },
        {
          "internalType": "address",
          "name": "initiator",
          "type": "address"
        },
        {
          "internalType": "bytes",
          "name": "params",
          "type": "bytes"
        }
      ],
      "name": "executeOperation",
      "outputs": [
        {
          "internalType": "bool",
          "name": "",
          "type": "bool"
        }
      ],
      "stateMutability": "nonpayable",
      "type": "function"
    },
    {
      "inputs": [],
      "name": "owner",
      "outputs": [
        {
          "internalType": "address",
          "name": "",
          "type": "address"
        }
      ],
      "stateMutability": "view",
      "type": "function"
    },
    {
      "inputs": [],
      "name": "renounceOwnership",
      "outputs": [],
      "stateMutability": "nonpayable",
      "type": "function"
    },
    {
      "inputs": [
        {
          "internalType": "address",
          "name": "newOwner",
          "type": "address"
        }
      ],
      "name": "transferOwnership",
      "outputs": [],
      "stateMutability": "nonpayable",
      "type": "function"
    },
    {
      "inputs": [],
      "name": "withdrawETH",
      "outputs": [],
      "stateMutability": "nonpayable",
      "type": "function"
    },
    {
      "inputs": [
        {
          "internalType": "address",
          "name": "token",
          "type": "address"
        },
        {
          "internalType": "uint256",
          "name": "amount",
          "type": "uint256"
        }
      ],
      "name": "withdrawToken",
      "outputs": [],
      "stateMutability": "nonpayable",
      "type": "function"
    },
    {
      "stateMutability": "payable",
      "type": "receive"
    }
  ],
  "bytecode": "0x60c080604052346101295760046020610e5e8038038091610020828761012e565b85396001600160a01b0393849161003a9190810190610167565b16806080526040519283809263026b1d5f60e01b82525afa801561011d5782916000916100ef575b501660a05233156100d6576000543360018060a01b0319821617600055604051913391167f8be0079c531659141344cd1fd0a4f28419497f9722a3daafe3b4186f6b6457e0600080a3610cd7908161018782396080518160f6015260a0518181816101eb0152818161054201526108b20152f35b604051631e4fbdf760e01b815260006004820152602490fd5b610110915060203d8111610116575b610108818361012e565b810190610167565b38610062565b503d6100fe565b6040513d6000823e3d90fd5b600080fd5b601f909101601f19168101906001600160401b0382119082101761015157604052565b634e487b7160e01b600052604160045260246000fd5b9081602091031261012957516001600160a01b0381168103610129579056fe6080604052600436101561001b575b361561001957600080fd5b005b60003560e01c80630542975c146100cb5780631b11d0ff146100c6578063679d86a7146100c1578063715018a6146100bc5780637535d246146100b75780637c1d9539146100b25780638da5cb5b146100ad5780639e281a98146100a8578063c08bcc65146100a3578063e086e5ec1461009e5763f2fde38b0361000e57610794565b610750565b6106cf565b610649565b610620565b610571565b61052c565b6104ce565b61048f565b610193565b6100e0565b60009103126100db57565b600080fd5b346100db5760003660031901126100db576040517f00000000000000000000000000000000000000000000000000000000000000006001600160a01b03168152602090f35b600435906001600160a01b03821682036100db57565b606435906001600160a01b03821682036100db57565b35906001600160a01b03821682036100db57565b9181601f840112156100db5782359167ffffffffffffffff83116100db57602083818601950101116100db57565b346100db5760a03660031901126100db576101ac610125565b6024356101b761013b565b9160843567ffffffffffffffff81116100db576101db610228913690600401610165565b919060018060a01b0392610220847f00000000000000000000000000000000000000000000000000000000000000001697610217893314610957565b85163014610999565b810190610a8e565b8051516040805163095ea7b360e01b8082526001600160a01b03909316600482015260248101879052909693909416936020936000938583604481888b5af19283156104505761031293610472575b506102bc8580835189610290825160018060a01b031690565b91015190828b83519301915af16102ae6102a8610b25565b91610b55565b878082518301019101610b93565b94866102dd6102d16102d18386510151610c58565b6001600160a01b031690565b8184018051518d518981526001600160a01b039091166004820152602481019990995297958691908290859082906044820190565b03925af19283156104505761036a82806103bd998e988c98610455575b5051805188906001600160a01b031691015190828983519301915af161035c610356610b25565b91610ba2565b858082518301019101610b93565b9561039061038861037d6044358e610bf7565b978896015186610bf7565b881015610c09565b8b519081526001600160a01b03909116600482015260248101929092529094859190829081906044820190565b0391895af1918215610450577fefe33e6cdb0dc5014bb0249a43460141424a940ce872e1d1a925fa69cdb76f5c94610415946103ff94610422575b5050610c4b565b8551948552602085015232939081906040820190565b0390a35160018152602090f35b8161044192903d10610449575b6104398183610877565b810190610b0d565b5038806103f8565b503d61042f565b610899565b61046b90893d8b11610449576104398183610877565b503861032f565b61048890873d8911610449576104398183610877565b5038610277565b346100db5760203660031901126100db576001600160a01b036104b0610125565b166000526001602052602060ff604060002054166040519015158152f35b346100db57600080600319360112610529576104e861081c565b80546001600160a01b03198116825581906001600160a01b03167f8be0079c531659141344cd1fd0a4f28419497f9722a3daafe3b4186f6b6457e08280a380f35b80fd5b346100db5760003660031901126100db576040517f00000000000000000000000000000000000000000000000000000000000000006001600160a01b03168152602090f35b346100db5760603660031901126100db5761058a610125565b60443567ffffffffffffffff81116100db576105aa903690600401610165565b9033600052600160205260ff60406000205416801561060c575b156105d65761001992602435906108a5565b60405162461bcd60e51b815260206004820152600e60248201526d139bdd08185d5d1a1bdc9a5e995960921b6044820152606490fd5b506000546001600160a01b031633146105c4565b346100db5760003660031901126100db576000546040516001600160a01b039091168152602090f35b346100db5760403660031901126100db57610662610125565b61066a61081c565b6000805460405163a9059cbb60e01b81526001600160a01b0391821660048201526024803590820152926020928492604492849291165af18015610450576106ae57005b6100199060203d8111610449576104398183610877565b801515036100db57565b346100db5760403660031901126100db576106e8610125565b7f61e59429ef81596566b5f5d75085a25d4043be4dd2ba28cc98d8677718e6d0c3602060243592610718846106c5565b61072061081c565b60018060a01b031692836000526001825260406000209015159060ff1981541660ff8316179055604051908152a2005b346100db576000806003193601126105295761076a61081c565b8080808060018060a01b03815416479082821561078b575bf1156104505780f35b506108fc610782565b346100db5760203660031901126100db576107ad610125565b6107b561081c565b6001600160a01b03908116801561080357600080546001600160a01b03198116831782559092167f8be0079c531659141344cd1fd0a4f28419497f9722a3daafe3b4186f6b6457e08380a380f35b604051631e4fbdf760e01b815260006004820152602490fd5b6000546001600160a01b0316330361083057565b60405163118cdaa760e01b8152336004820152602490fd5b634e487b7160e01b600052604160045260246000fd5b67ffffffffffffffff811161087257604052565b610848565b90601f8019910116810190811067ffffffffffffffff82111761087257604052565b6040513d6000823e3d90fd5b9192916001600160a01b037f0000000000000000000000000000000000000000000000000000000000000000811691823b156100db5760c460009591828793604051998a98899788956310ac2ddf60e21b8752306004880152166024860152604485015260a060648501528160a48501528484013783838284010152836084830152601f801991011681010301925af18015610450576109425750565b8061094f6109559261085e565b806100d0565b565b1561095e57565b60405162461bcd60e51b815260206004820152601360248201527210d85b1b195c881b5d5cdd08189948141bdbdb606a1b6044820152606490fd5b156109a057565b60405162461bcd60e51b815260206004820152601f60248201527f496e69746961746f72206d757374206265207468697320636f6e7472616374006044820152606490fd5b67ffffffffffffffff811161087257601f01601f191660200190565b91906040838203126100db576040805167ffffffffffffffff9491810185811182821017610872576040528094610a3783610151565b8252602092838101359182116100db570183601f820112156100db57803590610a5f826109e5565b94610a6d6040519687610877565b8286528483830101116100db57816000928580930183880137850101520152565b906020828203126100db57813567ffffffffffffffff928382116100db57016060818303126100db576040519260608401848110828211176108725760405281358181116100db5783610ae2918401610a01565b845260208201359081116100db57604092610afe918301610a01565b60208401520135604082015290565b908160209103126100db5751610b22816106c5565b90565b3d15610b50573d90610b36826109e5565b91610b446040519384610877565b82523d6000602084013e565b606090565b15610b5c57565b60405162461bcd60e51b815260206004820152600f60248201526e109d5e481cddd85c0819985a5b1959608a1b6044820152606490fd5b908160209103126100db575190565b15610ba957565b60405162461bcd60e51b815260206004820152601060248201526f14d95b1b081cddd85c0819985a5b195960821b6044820152606490fd5b634e487b7160e01b600052601160045260246000fd5b91908201809211610c0457565b610be1565b15610c1057565b60405162461bcd60e51b8152602060048201526013602482015272125b9cdd59999a58da595b9d081c1c9bd99a5d606a1b6044820152606490fd5b91908203918211610c0457565b6024815110610c68576024015190565b60405162461bcd60e51b8152602060048201526011602482015270496e76616c69642073776170206461746160781b6044820152606490fdfea2646970667358221220b48e2be11fe022c046b37f36337a1e30ca66b6e1d730f8cbe7e6f113472402d464736f6c63430008140033",
  "linkReferences": {},
  "deployedLinkReferences": {}
}